:020000040000FA
:0608000006EF0EF01200ED
:0608080016EF04F01200DF
:02082A000000CC
:04082C00DACFE4FF3C
:10083000E2CFDAFFE9CFE4FFEACFE4FFF6CFE4FF4F
:10084000F7CFE4FFF5CFE4FFF3CFE4FFF4CFE4FF0D
:10085000FACFE4FF00EE18F0100EE80403E3EECF49
:10086000E4FFFBD700EE00F0180EE80403E3EECF40
:10087000E4FFFBD7AEC0E4FFAFC0E4FFB0C0E4FFCD
:10088000B1C0E4FFE6520001A851A91103E0A80796
:10089000000EA95B81B202D0978F979548D87FD878
:1008A000000197A517D0A351AB19E8AE02D0AB3524
:1008B00004D0AA51A25DAB51A35901E2978397A33B
:1008C00007D0A407000EA55BA451A51101E19789EB
:1008D00098D8E2D89E92E552E5CFB1F0E5CFB0F0DE
:1008E000E5CFAFF0E5CFAEF000EE17F0180EE8045C
:1008F00003E3E5CFEDFFFBD700EE27F0100EE80491
:1009000003E3E5CFEDFFFBD7E5CFFAFFE5CFF4FF3B
:10091000E5CFF3FFE5CFF5FFE5CFF7FFE5CFF6FF36
:10092000E5CFEAFFE5CFE9FFE5CFDAFF11000001EF
:100930009751040B15E09751080B12E1ACC000F081
:10094000ADC001F0026A036A01AE02D0026803681A
:100950000050C2270150C3230250C4230350C523B3
:10096000C20EE96E000EEA6E030EEBCFF3FFC1512B
:10097000F318E8AE02D0F33408D0EE50BE5DEE506E
:10098000BF59EE50C059EE50C15908E2BEC0C2F086
:10099000BFC0C3F0C0C0C4F0C1C0C5F01200819692
:1009A000818681AAFED783CFAAF0818883CFABF05E
:1009B000819800019E51AA5DCA6F9F51AB59CB6FC0
:1009C000CC6BCD6BCBAF02D0CC69CD69AAC09EF009
:1009D000ABC09FF0AB3504E2AA51BC087F0EAB550B
:1009E00001E29781AAC0C6F0ABC0C7F0C7C0C8F08B
:1009F000C6C0C7F0C66BC8AF02D0C96901D0C96B09
:100A00001200C2C0AEF0C3C0AFF0C4C0B0F0C5C0E9
:100A1000B1F00001AE6BC60EE96E000EEA6EEE504C
:100A2000AE5DB26FEE50AF59B36FEE50B059B46FC8
:100A3000EE50B159B56FB3C0B2F0B4C0B3F0B5C0A9
:100A4000B4F0B4AF14D0B569D880B551FF0A08E648
:100A5000000EB25D800EB359FF0EB459FF0EB559AA
:100A600005E2B26B800EB36FB469B56914D0B56B93
:100A7000B535000EB51909E6D880FF0EB2557F0EC8
:100A8000B355000EB455000EB55505E2B2697F0EA0
:100A9000B36FB46BB56B1200000197B708D0B251B9
:100AA000B627B351B723B451B823B551B92398C071
:100AB0000CF099C00DF00E6A0F6A0DAE02D00E68F0
:100AC0000F68B2C008F0B3C009F00A6A0B6A09AE39
:100AD00002D00A680B6808C01EF009C01FF00AC0E7
:100AE00020F00BC021F00CC023F00DC024F00EC08C
:100AF00025F00FC026F0AFEC0CF01AC004F01BC0BC
:100B000005F01CC006F01DC007F09AC010F09BC095
:100B100011F0126A136A11AE02D012681368B6C0DF
:100B20001EF0B7C01FF0B8C020F0B9C021F010C04F
:100B300023F011C024F012C025F013C026F0AFEC52
:100B40000CF004501A24006E05501B20016E065054
:100B50001C20026E07501D20036E9CC014F09DC027
:100B600015F0166A176A15AE02D016681768CAC063
:100B70001EF0CBC01FF0CCC020F0CDC021F014C0BF
:100B800023F015C024F016C025F017C026F0AFECF6
:100B90000CF000501A240001BA6F01501B20BB6FEB
:100BA00002501C20BC6F03501D20BD6FBDAF0CD088
:100BB000FF0EBD5D03E3800EBC1505E1BA6BBB6B98
:100BC000800EBC6FBD690AD0BD5103E1BC517F08E6
:100BD00005E2BA69BB697F0EBC6FBD6BBBC0BAF0E2
:100BE000BCC0BBF09797BB3504E2BA51FE08070EB4
:100BF000BB5505E2FE0EBA6F070EBB6F9787D88014
:100C0000BB5104E7020EBA5DF80EBB5905E2020EB5
:100C1000BA6FF80EBB6F9787080EBB2784920F0E32
:100C2000BB15966F300E9611966F808096C0E6FFCA
:100C3000D6EC0DF0E5520001956FBAC0E6FFD6EC98
:100C40000DF0E5520001956F80908482849084803D
:100C500012000001A86BA96B916B926B936B946B64
:100C6000010EA46FA56B9791979397959797979976
:100C7000979B979D979FB66BB76BB86BB96B300E10
:100C8000AC6F750EAD6FCA6BCB6BCC6BCD6BAE6BB7
:100C9000AF6BB06BB16BB26BB36BB46BB56BBA6B64
:100CA000BB6BBC6BBD6BBE6BBF6BC06BC16B980E7F
:100CB000A06F3A0EA16FC26BC36BC46BC56BC66BE2
:100CC000C76BC86BC96B080EE66EE66AE66A800EF3
:100CD000E66E000EE66EBCEC0DF0006E050EE15EF9
:100CE0000050EB0EE66EEEEC0DF0E5529D0EE66E5A
:100CF000A1EC0DF0E552E66A020EE66E4EEC0DF048
:100D0000E552E552800EE66EE66A010EE66E1BECD9
:100D10000DF0E552E552E5520F0EC16E806A816A10
:100D2000826A836A846AFE0E926EE30E936EC30E2D
:100D3000946E9568966A8186819484828480819875
:100D4000400EAF6E240EAC6E900EAB6E3C0E0001EA
:100D5000986F996B9A6B9B6B9C6B9D6B35EC0BF052
:100D6000F28CF28E120075DF4A0EE66E190EE66EF8
:100D7000AFEC0AF0E552E552240EE66E1C0EE66E6C
:100D8000AFEC0AF0E552E552000197AF0CD0979511
:100D9000979FEBEC0AF0430EE66E190EE66EAFEC91
:100DA0000AF0E552E552000197A10BD09795979173
:100DB000EBEC0AF03C0EE66E190EE66ED0DBE55267
:100DC000E552000197A90BD097959799EBEC0AF0A3
:100DD000350EE66E190EE66EC2DBE552E5520001F5
:100DE0009751040B0FE0A851A9110CE135EC0BF061
:100DF0000001978B97952E0EE66E190EE66EAFDB0F
:100E0000E552E552000197AD13D02B0EE66E190E98
:100E1000E66EA5DBE552E552ACA2FED7AAC0ADFF57
:100E2000ACA2FED7ABC0ADFFACA2FED70D0EAD6E2F
:100E30009EAA32D1AECF94F0AE500D0A01E10ED190
:100E4000210A01E1F6D0410A01E1ECD0050A01E1F5
:100E5000DBD00F0A26E000019251EA6A800FE96EAA
:100E6000000EEA2294C0EFFF922B9251070801E393
:100E700010D1240EE66E1C0EE66E71DBE552E552D3
:100E8000080EE66EE66AE66A800EE66E000EE66E14
:100E9000BCEC0DF0006E050EE15E00500001926B9F
:100EA000FAD0000197AB08D02E0EE66E190EE66E52
:100EB00056DBE552E552F0D0A0C000F0A1C001F031
:100EC000026A036A01AE02D002680368AAC004F095
:100ED000ABC005F0066A076A05AE02D0066807686F
:100EE00000500424BE6F01500520BF6F0250062041
:100EF000C06F03500720C16FD890C151000A08E6A7
:100F0000D00EBE5D070EBF59000EC059000EC1596C
:100F100002E3000E01D0010E006EC135000EC119B2
:100F200009E6D880BC0EBE557F0EBF55000EC055D9
:100F3000000EC15502E3000E01D0010E001008E0C2
:100F4000240EE66E190EE66E0ADBE552E552A4D0D9
:100F5000BEC01EF0BFC01FF0C0C020F0C1C021F055
:100F60000A0E236E246A256A266AE7EC0CF01E50EE
:100F70000001BE5D006E1F50BF59016E2050C05968
:100F8000026E2150C159036E00C0A2F001C0A3F04F
:100F9000BFC0C0F0BEC0BFF0BE6BC0AF02D0C16961
:100FA00001D0C16B81B026D0AAC0C2F0ABC0C3F0E3
:100FB000C3C0C4F0C2C0C3F0C26BC4AF02D0C56925
:100FC00001D0C56BB66BB76BB86BB96B1F0EE66E15
:100FD000190EE66EC4DAE552E5520001979397992F
:100FE000A6C0A4F0A7C0A5F0C50EA86F040EA96FF7
:100FF000978509D01A0EE66E190EE66EB0DAE55244
:10100000E5520001979548D0000197AB08D02E0E0D
:10101000E66E190EE66EA3DAE552E5523DD09795DD
:10102000DADA3AD0000197BD02D0978D01D0979DB2
:1010300033D034D8080EE66EE66AE66A800EE66EB5
:10104000000EE66EBCEC0DF0006E050EE15E005089
:101050000001926B932B94C0ADFF1ED01FD8080ED9
:10106000E66EE66AE66A800EE66E000EE66EBCECA0
:101070000DF0006E050EE15E00500001926B936B67
:10108000916B240EE66E1C0EE66E69DAE552E552AF
:1010900003D094C0ADFF00D077D612000001935169
:1010A00001E0E2D18051720A01E1D3D11F0A01E1CE
:1010B000CAD1050A01E1BAD10F0A01E105D1140A2A
:1010C00022E0070A1DE0100A18E00D0A13E0190AD1
:1010D0000EE0160A09E0100A04E0805101E1C2D1D5
:1010E000BAD1560E916FBFD1460E916FBCD1500E42
:1010F000916FB9D1490E916FB6D1440E916FB3D1B2
:10110000540E916FB0D1100EE66E190EE66E27DA0E
:10111000E552E552880EE66E000EE66EAAC0E6FFC6
:10112000ABC0E6FFC9EC0BF0E552E552E552E552E3
:10113000880EE66E000EE66E31DAE552E552070ED5
:10114000E66E190EE66E0BDAE552E552880EE66E93
:10115000000EE66EA0C0E6FFA1C0E6FFC9EC0BF0F2
:10116000E552E552E552E552880EE66E000EE66E57
:1011700015DAE552E552FF0EE66E180EE66EEFD96F
:10118000E552E552880EE66E000EE66E98C0E6FF68
:1011900099C0E6FFC9EC0BF0E552E552E552E55285
:1011A000880EE66E000EE66EF9D9E552E552F70EAE
:1011B000E66E180EE66ED3D9E552E552880EE66E5D
:1011C000000EE66E9AC0E6FF9BC0E6FFC9EC0BF08E
:1011D000E552E552E552E552880EE66E000EE66EE7
:1011E000DDD9E552E552EF0EE66E180EE66EB7D980
:1011F000E552E552880EE66E000EE66E9CC0E6FFF4
:101200009DC0E6FFC9EC0BF0E552E552E552E55210
:10121000880EE66E000EE66EC1D9E552E552E50E87
:10122000E66E180EE66E9BD9E552E552880EE66E24
:10123000000EE66EACC0E6FFADC0E6FFC9EC0BF0F9
:10124000E552E552E552E552880EE66E000EE66E76
:10125000A5D9E552E552DA0EE66E180EE66E7FD994
:10126000E552E552880EE66E000EE66EA4C0E6FF7B
:10127000A5C0E6FFC9EC0BF0E552E552E552E55298
:10128000880EE66E000EE66E89D9E552E552CF0E65
:10129000E66E180EE66E63D9E552E552880EE66EEC
:1012A000000EE66EA2C0E6FFA3C0E6FFC9EC0BF09D
:1012B000E552E552E552E552880EE66E000EE66E06
:1012C0006DD9E552E552CFD097AB08D02E0EE66E21
:1012D000190EE66E44D9E552E552C5D0A0C000F023
:1012E000A1C001F0026A036A01AE02D0026803687D
:1012F000AAC004F0ABC005F0066A076A05AE02D0CA
:101300000668076800500424BE6F01500520BF6FB7
:1013100002500620C06F03500720C16FD890C15102
:10132000000A08E6D00EBE5D070EBF59000EC05978
:10133000000EC15902E3000E01D0010E006EC1354E
:10134000000EC11909E6D880BC0EBE557F0EBF55F0
:10135000000EC055000EC15502E3000E01D0010E73
:10136000001008E0240EE66E190EE66EF8D8E5527D
:10137000E55279D0BEC01EF0BFC01FF0C0C020F043
:10138000C1C021F00A0E236E246A256A266AE7ECA2
:101390000CF01E500001BE5D006E1F50BF59016E63
:1013A0002050C059026E2150C159036E00C0A2F0F6
:1013B00001C0A3F0BFC0C0F0BEC0BFF0BE6BC0AFE5
:1013C00002D0C16901D0C16B81B026D0AAC0C2F0E1
:1013D000ABC0C3F0C3C0C4F0C2C0C3F0C26BC4AFE3
:1013E00002D0C56901D0C56BB66BB76BB86BB96B72
:1013F0001F0EE66E190EE66EB2D8E552E5520001F8
:1014000097939799A6C0A4F0A7C0A5F0C50EA86FA2
:10141000040EA96F978509D01A0EE66E190EE66EB6
:101420009ED8E552E552000197951DD097AB08D0A4
:101430002E0EE66E190EE66E92D8E552E55213D0E6
:101440009795C9D810D097BD02D0978D01D0979DA0
:101450000AD0979B08D0C60EE66E180EE66E7FD8AF
:10146000E552E55200D07AD0930501E077D0915152
:10147000460A59E0120A3DE0020A2EE0120A1FE075
:101480000D0A10E0190A01E068D0800EE66E000E29
:10149000E66E54EC0BF0E552E552F3CF98F0F4CF42
:1014A00099F05CD0800EE66E000EE66E54EC0BF008
:1014B000E552E552F3CF9AF0F4CF9BF04FD0800E77
:1014C000E66E000EE66E54EC0BF0E552E552F3CFFB
:1014D0009CF0F4CF9DF042D0800EE66E000EE66EDA
:1014E00054EC0BF0E552E552F3CFACF0F4CFADF095
:1014F00035D0800EE66E000EE66E54EC0BF0E55231
:10150000E552F3CFA6F0F4CFA7F0010E0001A7AF8C
:1015100002D0D89003D0A65D000EA75903E2010EB9
:10152000A66FA76B1BD0800EE66E000EE66E54EC25
:101530000BF0E552E552F3CFA0F0F4CFA1F000019B
:10154000D890A15104E6E80EA05D030EA15904E273
:10155000E80EA06F030EA16F01D000D01200D9CF0A
:10156000E6FFE1CFD9FFACA2FED7FD0EDBCFF6FF41
:10157000FE0EDBCFF7FF0800F550AD6EFD0EDBCFA2
:10158000F6FFDB2AFE0EDBCFF7FF01E3DB2A0800C4
:10159000F550E9E1E552E7CFD9FF1200D9CFE6FFD8
:1015A000E1CFD9FFACA2FED7FD0EDBCFE9FFFE0EE7
:1015B000DBCFEAFFEF50AD6EFD0EDBCFE9FFDB2A9C
:1015C000FE0EDBCFEAFF01E3DB2AEF50EBE1E55251
:1015D000E7CFD9FF120081A047D0000197AB09D017
:1015E00044D82E0EE66E190EE66EB9DFE552E552CE
:1015F0003BD02B0EF66E1C0EF76E0900F5CFBAF03D
:101600000A00F5CFBBF084920F0EBB15966F300E1B
:101610009611966F808096C0E6FFD6EC0DF0E552ED
:101620000001956FBAC0E6FFD6EC0DF0E55200015F
:10163000956F8090848284908480C50EA86F040E7C
:10164000A96F81A010D0A851A9110CE10ED80001FA
:10165000978B97952E0EE66E190EE66E80DFE5529B
:10166000E55201D0EED701D812000001BA69070E89
:10167000BB6F84920F0EBB15966F300E9611966F4E
:10168000808096C0E6FFD6EC0DF0E5520001956F24
:10169000BAC0E6FFD6EC0DF0E5520001956F8090E0
:0816A000848284908480120012
:0816A800FF0EE3CFEAFFE5525B
:1016B000FF0EE3CFE9FFE552E66AE66AD9CFE6FF1F
:1016C000DACFE6FFFC0EE124D96EFF0EE220DA6EDF
:1016D000E66AE66AE66A200EEF5C06E0090EEF5C59
:1016E00003E0EF6603D03FD0EE50F5D72D0EEF5C50
:1016F00003E1FF0EE32A03D02B0EEF5C01E1EE5075
:101700002F0EEF6424D03A0EEF6021D0D890F90E5E
:10171000E336FA0EE336FD0EDECFE3FFFE0EDDCF3D
:10172000E3FFD890F90EE336FA0EE336D890F90EBF
:10173000E336FA0EE336FD0EE350DE26FE0EE350EE
:10174000DD22300EEE5CDE26000EDD22D9D7FF0E44
:10175000E3CFE8FFE85207E0F90EE31EE32AFA0EB2
:10176000D8B4E306E31EE552E552E552FF0EE3CF9F
:10177000DAFFE552FF0EE3CFD9FFE552E1CFE9FFF3
:10178000E2CFEAFFED52ED52EECFF3FFEFCFF4FFE1
:101790001200D9CFE6FFDACFE6FFFA0EE3CFD9FF8A
:1017A000FB0EE3CFDAFFFD0EE35209E72D0EDE6EEE
:1017B000FC0EE31EE32AFD0ED8B4E306E31EE65258
:1017C000E652E652FD0EE124E76EFF0EE220E46EE3
:1017D000E652F70EE3CFE6FFF70EE3CFE6FF39EC74
:1017E0000CF0F90EE124E96EFF0EE220EA6E29EC1E
:1017F0000CF00AE126EC0CF009E129EC0CF008E110
:1018000026EC0CF007E108D034EC0CF02FEC0CF0D7
:1018100034EC0CF02FEC0CF034EC0CF0DE6AF90E2A
:10182000E126FF0EE222FF0EE3CFDAFFE552FF0EC4
:10183000E3CFD9FFE552FC0EE124E96EFF0EE22072
:10184000EA6EEECFF3FFEFCFF4FF1200EF380F0B8D
:101850001200EF500F0B02E1EE52D8841200EF3865
:101860000F0B300FDE6E1200EE500F0B300FDE6EDE
:101870001200FC0EE3CFE9FFFD0EE3CFEAFF100EEE
:10188000E66EEE6AEE6AEF6AD890FD0EE336FE0E63
:10189000E336ED36ED36EF36FF0EE30609E05AEC9F
:1018A0000CF0EE525AEC0CF0EE525AEC0CF0EDD774
:1018B000E56E1200030EEF24E8B6EF6E300EEF2453
:0618C000E8BEEF6E000C13
:0A18C600C7C7FC362F722F6E0020FA
:1018D0002072616E6765203D2000202064656C6188
:1018E00079203D20002020766C696D203D2000206D
:1018F000204B64203D200020204B69203D2000200B
:10190000204B70203D20002020726571203D20007A
:1019100020204144696E203D2000C7C7FC3500C728
:10192000C7FC3000C7C7FC340D0A00C7C700C7C7D3
:10193000FC330D0A00C7C7FC300D0A00C7C7FC32D4
:101940000D0A00C7C7FC310D0A000D0A5061696E0F
:0E19500020736572766F2076312E300A0D00FE
:02195E001E5019
:101960002302F3CF1AF0F4CF1BF02402F3501B260E
:10197000000EF4201C6E1E502502F3501C26000E93
:10198000F4201D6E1E502602F3501D261F50230208
:10199000F3501B26F4501C22000E1D221F5024025F
:1019A000F3501C26F4501D221F502502F3501D2613
:1019B00020502302F3501C26F4501D2220502402F4
:0E19C000F3501D2621502302F3501D26120065
:0219CE00186A95
:1019D000E86A26AEF4EF0CF0236C241E251E261EAA
:1019E000242225222622181E21AEFFEF0CF01E6CA9
:1019F0001F1E201E211E1F2220222122181E7DECC8
:101A00000DF021BE16EF0DF018AE000C1E6C1F1E5F
:101A1000201E211EE86A1F22202221221A6C1B1E72
:101A20001C1E1D1E1B221C221D22000C18BE06EFB0
:061A30000DF01988FF0C07
:0A1A3600D9CFE6FFDACFE6FFE1CFDB
:101A4000D9FFE2CFDAFF3F0EC716C66AFD0EDB50A4
:101A5000C612FB0EDB50C712FC0EDB50030A09E076
:101A6000010A04E0020A06E1C78C04D0C78CC688CC
:101A700001D0C688FD0EDB50050A03E0010A04E12F
:101A8000928A9486C79E01D09496949A9488C68A26
:0C1A9000E552E5CFDAFFE7CFD9FF1200E6
:041A9C00D9CFE6FFB9
:101AA000DACFE6FFE1CFD9FFE2CFDAFFE652E65226
:101AB000FC0EDBCF00F0FD0EDBCF01F0060ED89060
:101AC00000360136E804FBE100C0DEFF01C0DDFFA7
:101AD000010EDB50BE6EDF50E840E8403F0B300B9C
:101AE000006ECF0EBD140010BD6EE552E552E552FA
:0A1AF000E5CFDAFFE7CFD9FF1200BF
:061AFA001D6A1C6A1B6A54
:101B00001A6A200EE76ED8901E361F362036213610
:101B10001A361B361C361D3623501A5C24501B58AF
:101B200025501C5826501D5809E323501A5E245096
:101B30001B5A25501C5A26501D5A1E2AE72EE4D740
:021B4000120091
:0E1B4200D9CFE6FFDACFE6FFE1CFD9FFE2CF41
:101B5000DAFFFD0EDB50FB0BCA6ECC6A9E92FD0EC7
:101B6000DBAE02D09D8201D09D92CA84E552E5CFC2
:081B7000DAFFE7CFD9FF1200F4
:081B7800FE0EE3CFE9FFFF0EB2
:101B8000E3CFEAFFE9CFF3FFEACFF4FFFB0EE35028
:101B900003E1FC0EE35009E0FB0EE30602E2FC0E5B
:0C1BA000E306FD0EE350EE6EF1D71200DC
:041BAC00D9CFE6FFA8
:101BB000DACFE6FFE1CFD9FFE2CFDAFFFD0EDB504F
:101BC000C96EC6AE02D0FF0E03D0C7A0FED7000E6E
:0C1BD000E552E5CFDAFFE7CFD9FF1200A5
:041BDC00D9CFE6FF78
:101BE000DACFE6FFE1CFD9FFE2CFDAFF0C0EBD6E10
:101BF000CA94FD0EDB50CB6E07D8CA84E552E5CF00
:0C1C0000DAFFE7CFD9FF12009494120025
:041C0C0011EE00F0E5
:101C100021EE00F0F86A199C17EC0EF0B3EC06F018
:041C2000FBD71200DC
:091C2400C7C7FC300A0D000000E6
:021C2E001200A2
:00000001FF
