:020000040000FA
:06080000A5EF0DF012004F
:0608080016EF04F01200DF
:02082A000000CC
:04082C00DACFE4FF3C
:10083000E2CFDAFFE9CFE4FFEACFE4FFF6CFE4FF4F
:10084000F7CFE4FFF5CFE4FFF3CFE4FFF4CFE4FF0D
:10085000FACFE4FF00EE18F0100EE80403E3EECF49
:10086000E4FFFBD700EE00F0180EE80403E3EECF40
:10087000E4FFFBD7B4C0E4FFB5C0E4FFB6C0E4FFBB
:10088000B7C0E4FFE6520001AA51AB1103E0AA078A
:10089000000EAB5B81B202D09885989755D88CD862
:1008A000000198A724D0970797510AE1060E976F89
:1008B000ACC0B0F0ADC0B1F0B22B000EB323998143
:1008C000A551AD19E8AE02D0AD3504D0AC51A45D50
:1008D000AD51A55901E2988998A907D0A607000E45
:1008E000A75BA651A71101E1988198D8E2D89E9202
:1008F000E552E5CFB7F0E5CFB6F0E5CFB5F0E5CFFF
:10090000B4F000EE17F0180EE80403E3E5CFEDFFB6
:10091000FBD700EE27F0100EE80403E3E5CFEDFF70
:10092000FBD7E5CFFAFFE5CFF4FFE5CFF3FFE5CF47
:10093000F5FFE5CFF7FFE5CFF6FFE5CFEAFFE5CF1F
:10094000E9FFE5CFDAFF110000019851080B15E02F
:100950009851800B12E1AEC000F0AFC001F0026A06
:10096000036A01AE02D0026803680050C827015034
:10097000C9230250CA230350CB23C80EE96E000ED0
:10098000EA6E030EEBCFF3FFC751F318E8AE02D0C7
:10099000F33408D0EE50C45DEE50C559EE50C65940
:1009A000EE50C75908E2C4C0C8F0C5C0C9F0C6C0FF
:1009B000CAF0C7C0CBF012008196818681AAFED70B
:1009C00083CFACF0818883CFADF081980001A05136
:1009D000AC5DD06FA151AD59D16FD26BD36BD1AF9C
:1009E00002D0D269D369ACC0A0F0ADC0A1F0AD35E2
:1009F00004E2AC51BC087F0EAD5501E2988DACC04D
:100A0000CCF0ADC0CDF0CDC0CEF0CCC0CDF0CC6B35
:100A1000CEAF02D0CF6901D0CF6B1200C8C0B4F006
:100A2000C9C0B5F0CAC0B6F0CBC0B7F00001B46B16
:100A3000CC0EE96E000EEA6EEE50B45DB86FEE506B
:100A4000B559B96FEE50B659BA6FEE50B759BB6F82
:100A5000B9C0B8F0BAC0B9F0BBC0BAF0BAAF14D0E0
:100A6000BB69D880BB51FF0A08E6000EB85D800E56
:100A7000B959FF0EBA59FF0EBB5905E2B86B800E8B
:100A8000B96FBA69BB6914D0BB6BBB35000EBB191B
:100A900009E6D880FF0EB8557F0EB955000EBA553D
:100AA000000EBB5505E2B8697F0EB96FBA6BBB6B20
:100AB0001200000198BF08D0B851BC27B951BD231E
:100AC000BA51BE23BB51BF239AC00CF09BC00DF09E
:100AD0000E6A0F6A0DAE02D00E680F68B8C008F03B
:100AE000B9C009F00A6A0B6A09AE02D00A680B683D
:100AF00008C01EF009C01FF00AC020F00BC021F092
:100B00000CC023F00DC024F00EC025F00FC026F05D
:100B10004EEC0CF01AC004F01BC005F01CC006F02F
:100B20001DC007F09CC010F09DC011F0126A136A3E
:100B300011AE02D012681368BCC01EF0BDC01FF019
:100B4000BEC020F0BFC021F010C023F011C024F0BF
:100B500012C025F013C026F04EEC0CF004501A24FD
:100B6000006E05501B20016E06501C20026E0750BF
:100B70001D20036E9EC014F09FC015F0166A176A00
:100B800015AE02D016681768D0C01EF0D1C01FF095
:100B9000D2C020F0D3C021F014C023F015C024F03F
:100BA00016C025F017C026F04EEC0CF000501A24A9
:100BB0000001C06F01501B20C16F02501C20C26F8A
:100BC00003501D20C36FC3AF0CD0FF0EC35D03E302
:100BD000800EC21505E1C06BC16B800EC26FC36988
:100BE0000AD0C35103E1C2517F0805E2C069C1695F
:100BF0007F0EC26FC36BC1C0C0F0C2C0C1F0989F6E
:100C0000C13504E2C051FE08070EC15505E2FE0ED3
:100C1000C06F070EC16F988FD880C15104E7020ED4
:100C2000C05DF80EC15905E2020EC06FF80EC16F2B
:100C3000988F080EC12784920F0EC115966F300E43
:100C40009611966F808096C0E6FF75EC0DF0E55228
:100C50000001956FC0C0E6FF75EC0DF0E552000194
:100C6000956F809084828490848012000001916B43
:100C7000926B936B946B010EA66FA76B989D9899DE
:100C80009897989F9891989B989398959991B06B05
:100C9000B16B060E976FB26BB36BAA6BAB6BBC6B91
:100CA000BD6BBE6BBF6B300EAE6F750EAF6FD06B92
:100CB000D16BD26BD36BB46BB56BB66BB76BB86BD8
:100CC000B96BBA6BBB6BC06BC16BC26BC36BC46BD4
:100CD000C56BC66BC76B980EA26F3A0EA36FC86B3D
:100CE000C96BCA6BCB6BCC6BCD6BCE6BCF6B080E6D
:100CF000E66EE66AE66A800EE66E000EE66E5BEC75
:100D00000DF0006E050EE15E0050EB0EE66E8DEC10
:100D10000DF0E5529D0EE66E40EC0DF0E552E66AF0
:100D2000020EE66EEDEC0CF0E552E552800EE66E3A
:100D3000E66A010EE66EBAEC0CF0E552E552E552B9
:100D40000F0EC16E806A816A826A836A846AFE0EAF
:100D5000926EE30E936EC30E946E9568966A8186CA
:100D60008194848284808198400EAF6E240EAC6E94
:100D7000900EAB6E3C0E00019A6F9B6B9C6B9D6B53
:100D80009E6B9F6BC3EC0AF0F28CF28E12006EDF4A
:100D9000880EE66E180EE66E70DBE552E552620EC6
:100DA000E66E1B0EE66E69DBE552E552ABA209D09A
:100DB000810EE66E180EE66E60DBE552E552AB98EA
:100DC000AB88000198A50AD09897989592DB7A0E87
:100DD000E66E180EE66E51DBE552E552000198AD65
:100DE0000AD09897989D85DB730EE66E180EE66E16
:100DF00044DBE552E552000198A10AD098979891FA
:100E000078DB6C0EE66E180EE66E37DBE552E552C7
:100E100000019851080B0EE0AA51AB110BE1B3DBB6
:100E20000001988B9897650EE66E180EE66E25DB2E
:100E3000E552E55200019851020B1FE09951010B58
:100E40001CE09991620EE66E180EE66E16DBE55216
:100E5000E552ACA2FED7B2C0ADFFACA2FED7B3C084
:100E6000ADFFACA2FED7B0C0ADFFACA2FED7B1C003
:100E7000ADFFACA2FED70D0EAD6E9EAA4ED1AECF89
:100E800094F0AE500D0A01E12AD1210A01E112D1FC
:100E9000540A01E105D1150A01E1F8D0050A01E182
:100EA000E0D00F0A26E000019251EA6A800FE96E55
:100EB000000EEA2294C0EFFF922B9251070801E343
:100EC00029D1620EE66E1B0EE66ED7DAE552E552C8
:100ED000080EE66EE66AE66A800EE66E000EE66EC4
:100EE0005BEC0DF0006E050EE15E00500001926BB0
:100EF00013D1000198AB08D0650EE66E180EE66EB1
:100F0000BCDAE552E55209D1A2C000F0A3C001F05D
:100F1000026A036A01AE02D002680368ACC004F042
:100F2000ADC005F0066A076A05AE02D0066807681C
:100F300000500424C46F01500520C56F02500620E4
:100F4000C66F03500720C76FD890C751000A08E644
:100F5000D00EC45D070EC559000EC659000EC75904
:100F600002E3000E01D0010E006EC735000EC71956
:100F700009E6D880BC0EC4557F0EC555000EC65577
:100F8000000EC75502E3000E01D0010E001008E06C
:100F90005B0EE66E180EE66E70DAE552E552BDD0D5
:100FA000C4C01EF0C5C01FF0C6C020F0C7C021F0ED
:100FB0000A0E236E246A256A266A86EC0CF01E50FF
:100FC0000001C45D006E1F50C559016E2050C65906
:100FD000026E2150C759036E00C0A4F001C0A5F0F5
:100FE000C5C0C6F0C4C0C5F0C46BC6AF02D0C769E7
:100FF00001D0C76B81B02BD0ACC0C8F0ADC0C9F078
:10100000C9C0CAF0C8C0C9F0C86BCAAF02D0CB69AA
:1010100001D0CB6BBC6BBD6BBE6BBF6B560EE66E6F
:10102000180EE66E2ADAE552E55200019899989179
:10103000A8C0A6F0A9C0A7F0C50EAA6F040EAB6F9A
:10104000060E976FB26BB36B9991988709D0510ECA
:10105000E66E180EE66E11DAE552E5520001989739
:101060005CD0000198AB08D0650EE66E180EE66EF7
:1010700004DAE552E55251D098973BDA6C0EE66EF1
:10108000180EE66EFAD9E552E55247D00001988372
:101090006C0EE66E180EE66EF0D9E552E5523DD0C4
:1010A000000198936C0EE66E180EE66EE6D9E552D6
:1010B000E55233D034D8080EE66EE66AE66A800E52
:1010C000E66E000EE66E5BEC0DF0006E050EE15E66
:1010D00000500001926B932B94C0ADFF1ED01FD81F
:1010E000080EE66EE66AE66A800EE66E000EE66EB2
:1010F0005BEC0DF0006E050EE15E00500001926B9E
:10110000936B916B620EE66E1B0EE66EB6D9E552DE
:10111000E55203D094C0ADFF00D048D612000001C4
:10112000935101E02BD100018051720A01E10FD1EE
:10113000010A25E0070A1FE0100A19E00D0A13E072
:10114000190A0DE0160A07E0100A01E00BD10001B0
:10115000560E916F12D10001460E916F0ED1000113
:10116000500E916F0AD10001490E916F06D1000116
:10117000440E916F02D10001540E916FFED0450EC6
:10118000E66E180EE66E79D9E552E552880EE66EE7
:10119000000EE66EACC0E6FFADC0E6FF57EC0BF00C
:1011A000E552E552E552E552880EE66E000EE66E17
:1011B00083D9E552E5523A0EE66E180EE66E5DD919
:1011C000E552E552880EE66E000EE66EA2C0E6FF1E
:1011D000A3C0E6FF57EC0BF0E552E552E552E552AD
:1011E000880EE66E000EE66E67D9E552E552300EC7
:1011F000E66E180EE66E41D9E552E552880EE66EAF
:10120000000EE66E9AC0E6FF9BC0E6FF57EC0BF0BF
:10121000E552E552E552E552880EE66E000EE66EA6
:101220004BD9E552E552260EE66E180EE66E25D92C
:10123000E552E552880EE66E000EE66E9CC0E6FFB3
:101240009DC0E6FF57EC0BF0E552E552E552E55242
:10125000880EE66E000EE66E2FD9E552E5521C0EA2
:10126000E66E180EE66E09D9E552E552880EE66E76
:10127000000EE66E9EC0E6FF9FC0E6FF57EC0BF047
:10128000E552E552E552E552880EE66E000EE66E36
:1012900013D9E552E552100EE66E180EE66EEDD843
:1012A000E552E552880EE66E000EE66EAEC0E6FF31
:1012B000AFC0E6FF57EC0BF0E552E552E552E552C0
:1012C000880EE66E000EE66EF7D8E552E552030E84
:1012D000E66E180EE66ED1D8E552E552880EE66E3F
:1012E000000EE66EA6C0E6FFA7C0E6FF57EC0BF0C7
:1012F000E552E552E552E552880EE66E000EE66EC6
:10130000DBD8E552E552F60EE66E170EE66EB5D85E
:10131000E552E552880EE66E000EE66EA4C0E6FFCA
:10132000A5C0E6FF57EC0BF0E552E552E552E55259
:10133000880EE66E000EE66EBFD8E552E552620EEC
:10134000E66E1B0EE66E99D8E552E55216D0000106
:10135000989BEB0EE66E170EE66E8FD8E552E552BF
:10136000FF000BD00001805107E0E20EE66E170E81
:10137000E66E83D8E552E55200D07ED00001930599
:1013800001E07AD000019151460A5AE0120A3DE08C
:10139000020A2EE0120A1FE00D0A10E0190A01E00D
:1013A0006AD0800EE66E000EE66EE2EC0AF0E552C0
:1013B000E552F3CF9AF0F4CF9BF05ED0800EE66E4C
:1013C000000EE66EE2EC0AF0E552E552F3CF9CF037
:1013D000F4CF9DF051D0800EE66E000EE66EE2EC8A
:1013E0000AF0E552E552F3CF9EF0F4CF9FF044D0DF
:1013F000800EE66E000EE66EE2EC0AF0E552E55273
:10140000F3CFAEF0F4CFAFF037D0800EE66E000E23
:10141000E66EE2EC0AF0E552E552F3CFA8F0F4CF25
:10142000A9F0010E0001A9AF02D0D89003D0A85DA9
:10143000000EA95904E2010E0001A86FA96B1CD08F
:10144000800EE66E000EE66EE2EC0AF0E552E55222
:10145000F3CFA2F0F4CFA3F00001D890A35104E69B
:10146000E80EA25D030EA35905E20001E80EA26F8B
:10147000030EA36F01D000D01200D9CFE6FFE1CF59
:10148000D9FFACA2FED7FD0EDBCFF6FFFE0EDBCF01
:10149000F7FF0800F550AD6EFD0EDBCFF6FFDB2A3F
:1014A000FE0EDBCFF7FF01E3DB2A0800F550E9E190
:1014B000E552E7CFD9FF1200D9CFE6FFE1CFD9FF40
:1014C000ACA2FED7FD0EDBCFE9FFFE0EDBCFEAFFBD
:1014D000EF50AD6EFD0EDBCFE9FFDB2AFE0EDBCF5A
:1014E000EAFF01E3DB2AEF50EBE1E552E7CFD9FF5A
:1014F000120081A047D0000198AB09D044D8650EF6
:10150000E66E180EE66EB9DFE552E5523BD0690E85
:10151000F66E1B0EF76E0900F5CFC0F00A00F5CF8E
:10152000C1F084920F0EC115966F300E9611966F12
:10153000808096C0E6FF75EC0DF0E5520001956FD6
:10154000C0C0E6FF75EC0DF0E5520001956F80908C
:10155000848284908480C50EAA6F040EAB6F81A034
:1015600010D0AA51AB110CE10ED80001988B9897BE
:10157000650EE66E180EE66E80DFE552E55201D08C
:10158000EED701D812000001C069070EC16F849226
:101590000F0EC115966F300E9611966F808096C013
:1015A000E6FF75EC0DF0E5520001956FC0C0E6FF57
:1015B00075EC0DF0E5520001956F80908482849067
:0415C0008480120011
:0C15C400FF0EE3CFEAFFE552FF0EE3CF7D
:1015D000E9FFE552E66AE66AD9CFE6FFDACFE6FF31
:1015E000FC0EE124D96EFF0EE220DA6EE66AE66AAE
:1015F000E66A200EEF5C06E0090EEF5C03E0EF66A2
:1016000003D03FD0EE50F5D72D0EEF5C03E1FF0E77
:10161000E32A03D02B0EEF5C01E1EE502F0EEF64B6
:1016200024D03A0EEF6021D0D890F90EE336FA0EAE
:10163000E336FD0EDECFE3FFFE0EDDCFE3FFD890F5
:10164000F90EE336FA0EE336D890F90EE336FA0EC9
:10165000E336FD0EE350DE26FE0EE350DD22300EB3
:10166000EE5CDE26000EDD22D9D7FF0EE3CFE8FFC9
:10167000E85207E0F90EE31EE32AFA0ED8B4E306B7
:10168000E31EE552E552E552FF0EE3CFDAFFE552E5
:10169000FF0EE3CFD9FFE552E1CFE9FFE2CFEAFF4A
:1016A000ED52ED52EECFF3FFEFCFF4FF1200D9CFA2
:1016B000E6FFDACFE6FFFA0EE3CFD9FFFB0EE3CF6A
:1016C000DAFFFD0EE35209E72D0EDE6EFC0EE31E7F
:1016D000E32AFD0ED8B4E306E31EE652E652E652D4
:1016E000FD0EE124E76EFF0EE220E46EE652F70EF7
:1016F000E3CFE6FFF70EE3CFE6FFC7EC0BF0F90E02
:10170000E124E96EFF0EE220EA6EB7EC0BF00AE18D
:10171000B4EC0BF009E1B7EC0BF008E1B4EC0BF022
:1017200007E108D0C2EC0BF0BDEC0BF0C2EC0BF003
:10173000BDEC0BF0C2EC0BF0DE6AF90EE126FF0EF9
:10174000E222FF0EE3CFDAFFE552FF0EE3CFD9FF2F
:10175000E552FC0EE124E96EFF0EE220EA6EEECFC8
:10176000F3FFEFCFF4FF1200EF380F0B1200EF5032
:101770000F0B02E1EE52D8841200EF380F0B300F3E
:10178000DE6E1200EE500F0B300FDE6E1200FC0EFC
:10179000E3CFE9FFFD0EE3CFEAFF100EE66EEE6A3F
:1017A000EE6AEF6AD890FD0EE336FE0EE336ED36B4
:1017B000ED36EF36FF0EE30609E0E8EC0BF0EE52F3
:1017C000E8EC0BF0EE52E8EC0BF0EDD7E56E120012
:1017D000030EEF24E8B6EF6E300EEF24E8BEEF6E96
:0217E000000CFB
:0E17E200C7C7FC362F722F6E000D0A207265ED
:1017F0007365740D0A000D0A202072616E67652002
:101800003D20000D0A202064656C6179203D200098
:101810000D0A2020766C696D203D20000D0A2020E5
:101820004B64203D20000D0A20204B69203D200004
:101830000D0A20204B70203D20000D0A20207265EB
:1018400071203D20000D0A20204144696E203D207A
:1018500000C7C7FC3500C7C7FC3000C7C7FC340D44
:101860000A00C7C700C7C7FC330D0A00C7C7FC3052
:101870000D0A00C7C7FC320D0A00C7C7FC310D0AAC
:1018800000C7C7FC370D0A000D0A5061696E20734E
:0C1890006572766F2076312E330A0D0051
:04189C001E502302B5
:1018A000F3CF1AF0F4CF1BF02402F3501B26000EE6
:1018B000F4201C6E1E502502F3501C26000EF4204E
:1018C0001D6E1E502602F3501D261F502302F3509A
:1018D0001B26F4501C22000E1D221F502402F35020
:1018E0001C26F4501D221F502502F3501D262050A7
:1018F0002302F3501C26F4501D2220502402F350E2
:0C1900001D2621502302F3501D2612006A
:04190C00186AE86A03
:1019100026AE93EF0CF0236C241E251E261E2422D7
:1019200025222622181E21AE9EEF0CF01E6C1F1ED3
:10193000201E211E1F2220222122181E1CEC0DF029
:1019400021BEB5EF0CF018AE000C1E6C1F1E201E41
:10195000211EE86A1F22202221221A6C1B1E1C1E37
:101960001D1E1B221C221D22000C18BEA5EF0CF010
:041970001988FF0CC7
:0C197400D9CFE6FFDACFE6FFE1CFD9FFC4
:10198000E2CFDAFF3F0EC716C66AFD0EDB50C61265
:10199000FB0EDB50C712FC0EDB50030A09E0010A04
:1019A00004E0020A06E1C78C04D0C78CC68801D0C7
:1019B000C688FD0EDB50050A03E0010A04E1928AA5
:1019C0009486C79E01D09496949A9488C68AE552CC
:0A19D000E5CFDAFFE7CFD9FF1200E0
:0619DA00D9CFE6FFDACFD1
:1019E000E6FFE1CFD9FFE2CFDAFFE652E652FC0E86
:1019F000DBCF00F0FD0EDBCF01F0060ED8900036F5
:101A00000136E804FBE100C0DEFF01C0DDFF010E8E
:101A1000DB50BE6EDF50E840E8403F0B300B006EFD
:101A2000CF0EBD140010BD6EE552E552E552E5CF74
:081A3000DAFFE7CFD9FF120035
:081A38001D6A1C6A1B6A1A6A90
:101A4000200EE76ED8901E361F36203621361A3605
:101A50001B361C361D3623501A5C24501B5825504B
:101A60001C5826501D5809E323501A5E24501B5A57
:101A700025501C5A26501D5A1E2AE72EE4D7120064
:101A8000D9CFE6FFDACFE6FFE1CFD9FFE2CFDAFF29
:101A9000FD0EDB50FB0BCA6ECC6A9E92FD0EDBAED8
:101AA00002D09D8201D09D92CA84E552E5CFDAFF33
:061AB000E7CFD9FF120090
:0A1AB600FE0EE3CFE9FFFF0EE3CFC1
:101AC000EAFFE9CFF3FFEACFF4FFFB0EE35003E1B7
:101AD000FC0EE35009E0FB0EE30602E2FC0EE30617
:0A1AE000FD0EE350EE6EF1D7120088
:061AEA00D9CFE6FFDACFC0
:101AF000E6FFE1CFD9FFE2CFDAFFFD0EDB50C96E82
:101B0000C6AE02D0FF0E03D0C7A0FED7000EE5522E
:0A1B1000E5CFDAFFE7CFD9FF12009E
:061B1A00D9CFE6FFDACF8F
:101B2000E6FFE1CFD9FFE2CFDAFF0C0EBD6ECA941B
:101B3000FD0EDB50CB6E07D8CA84E552E5CFDAFF45
:0A1B4000E7CFD9FF120094941200C1
:061B4A0011EE00F021EE97
:101B500000F0F86A199CB6EC0DF0C7EC06F0FBD764
:021B6000120071
:091B6200C7C7FC300A0D000000A9
:021B6C00120065
:00000001FF
