:020000040000FA
:060800004CEF0EF01200A7
:0608080016EF04F01200DF
:02082A000000CC
:04082C00DACFE4FF3C
:10083000E2CFDAFFE9CFE4FFEACFE4FFF6CFE4FF4F
:10084000F7CFE4FFF5CFE4FFF3CFE4FFF4CFE4FF0D
:10085000FACFE4FF00EE18F0100EE80403E3EECF49
:10086000E4FFFBD700EE00F0180EE80403E3EECF40
:10087000E4FFFBD7B4C0E4FFB5C0E4FFB6C0E4FFBB
:10088000B7C0E4FFE6520001AA51AB1103E0AA078A
:10089000000EAB5B81B202D09885989755D88CD862
:1008A000000198A724D0970797510AE1030E976F8C
:1008B000ACC0B0F0ADC0B1F0B22B000EB323998143
:1008C000A551AD19E8AE02D0AD3504D0AC51A45D50
:1008D000AD51A55901E2988998A907D0A607000E45
:1008E000A75BA651A71101E1988198D8E2D89E9202
:1008F000E552E5CFB7F0E5CFB6F0E5CFB5F0E5CFFF
:10090000B4F000EE17F0180EE80403E3E5CFEDFFB6
:10091000FBD700EE27F0100EE80403E3E5CFEDFF70
:10092000FBD7E5CFFAFFE5CFF4FFE5CFF3FFE5CF47
:10093000F5FFE5CFF7FFE5CFF6FFE5CFEAFFE5CF1F
:10094000E9FFE5CFDAFF110000019851080B15E02F
:100950009851800B12E1AEC000F0AFC001F0026A06
:10096000036A01AE02D0026803680050C827015034
:10097000C9230250CA230350CB23C80EE96E000ED0
:10098000EA6E030EEBCFF3FFC751F318E8AE02D0C7
:10099000F33408D0EE50C45DEE50C559EE50C65940
:1009A000EE50C75908E2C4C0C8F0C5C0C9F0C6C0FF
:1009B000CAF0C7C0CBF012008196818681AAFED70B
:1009C00083CFACF0818883CFADF081980001A05136
:1009D000AC5DD06FA151AD59D16FD26BD36BD1AF9C
:1009E00002D0D269D369ACC0A0F0ADC0A1F0AD35E2
:1009F00004E2AC51BC087F0EAD5501E2988DACC04D
:100A0000CCF0ADC0CDF0CDC0CEF0CCC0CDF0CC6B35
:100A1000CEAF02D0CF6901D0CF6B1200C8C0B4F006
:100A2000C9C0B5F0CAC0B6F0CBC0B7F00001B46B16
:100A3000CC0EE96E000EEA6EEE50B45DB86FEE506B
:100A4000B559B96FEE50B659BA6FEE50B759BB6F82
:100A5000B9C0B8F0BAC0B9F0BBC0BAF0BAAF14D0E0
:100A6000BB69D880BB51FF0A08E6000EB85D800E56
:100A7000B959FF0EBA59FF0EBB5905E2B86B800E8B
:100A8000B96FBA69BB6914D0BB6BBB35000EBB191B
:100A900009E6D880FF0EB8557F0EB955000EBA553D
:100AA000000EBB5505E2B8697F0EB96FBA6BBB6B20
:100AB0001200000198BF08D0B851BC27B951BD231E
:100AC000BA51BE23BB51BF239AC00CF09BC00DF09E
:100AD0000E6A0F6A0DAE02D00E680F68B8C008F03B
:100AE000B9C009F00A6A0B6A09AE02D00A680B683D
:100AF00008C01EF009C01FF00AC020F00BC021F092
:100B00000CC023F00DC024F00EC025F00FC026F05D
:100B1000F5EC0CF01AC004F01BC005F01CC006F088
:100B20001DC007F09CC010F09DC011F0126A136A3E
:100B300011AE02D012681368BCC01EF0BDC01FF019
:100B4000BEC020F0BFC021F010C023F011C024F0BF
:100B500012C025F013C026F0F5EC0CF004501A2456
:100B6000006E05501B20016E06501C20026E0750BF
:100B70001D20036E9EC014F09FC015F0166A176A00
:100B800015AE02D016681768D0C01EF0D1C01FF095
:100B9000D2C020F0D3C021F014C023F015C024F03F
:100BA00016C025F017C026F0F5EC0CF000501A2402
:100BB0000001C06F01501B20C16F02501C20C26F8A
:100BC00003501D20C36FC3AF0CD0FF0EC35D03E302
:100BD000800EC21505E1C06BC16B800EC26FC36988
:100BE0000AD0C35103E1C2517F0805E2C069C1695F
:100BF0007F0EC26FC36BC1C0C0F0C2C0C1F0989F6E
:100C0000C13504E2C051FE08070EC15505E2FE0ED3
:100C1000C06F070EC16F988FD880C15104E7020ED4
:100C2000C05DF80EC15905E2020EC06FF80EC16F2B
:100C3000988F080EC12784920F0EC115966F300E43
:100C40009611966F808096C0E6FF1CEC0EF0E55280
:100C50000001956FC0C0E6FF1CEC0EF0E5520001EC
:100C6000956F809084828490848012000001916B43
:100C7000926B936B946B010EA66FA76B989D9899DE
:100C80009897989F9891989B989398959991B06B05
:100C9000B16B060E976FB26BB36BAA6BAB6BBC6B91
:100CA000BD6BBE6BBF6B300EAE6F750EAF6FD06B92
:100CB000D16BD26BD36BB46BB56BB66BB76BB86BD8
:100CC000B96BBA6BBB6BC06BC16BC26BC36BC46BD4
:100CD000C56BC66BC76B980EA26F3A0EA36FC86B3D
:100CE000C96BCA6BCB6BCC6BCD6BCE6BCF6B080E6D
:100CF000E66EE66AE66A800EE66E000EE66E02ECCE
:100D00000EF0006E050EE15E0050EB0EE66E34EC68
:100D10000EF0E5529D0EE66EE7EC0DF0E552E66A48
:100D2000020EE66E94EC0DF0E552E552800EE66E92
:100D3000E66A010EE66E61EC0DF0E552E552E55211
:100D40000F0EC16E806A816A826A836A846AFE0EAF
:100D5000926EE30E936EC30E946E9568966A8186CA
:100D60008194848284808198200EAF6E240EAC6EB4
:100D7000900EAB6E3C0E00019A6F9B6B9C6B9D6B53
:100D80009E6B9F6B6FEC0BF0F28CF28E12006EDF9D
:100D9000D50EE66E190EE66EE9EC0AF0E552E55264
:100DA000B00EE66E1C0EE66EE9EC0AF0E552E55276
:100DB000ABA20AD0CE0EE66E190EE66EE9EC0AF092
:100DC000E552E552AB98AB88000198A50CD09897F6
:100DD000989525EC0BF0C70EE66E190EE66EE9EC61
:100DE0000AF0E552E552000198AD0CD09897989D15
:100DF00025EC0BF0C00EE66E190EE66EE9EC0AF07B
:100E0000E552E552000198A10BD09897989125ECF6
:100E10000BF0B90EE66E190EE66EDBDBE552E5521D
:100E200000019851080B0FE0AA51AB110CE16FECD7
:100E30000BF00001988B9897B20EE66E190EE66ED5
:100E4000C8DBE552E55200019851020B1FE09951B1
:100E5000010B1CE09991AF0EE66E190EE66EB9DB40
:100E6000E552E552ACA2FED7B2C0ADFFACA2FED7B0
:100E7000B3C0ADFFACA2FED7B0C0ADFFACA2FED7F1
:100E8000B1C0ADFFACA2FED70D0EAD6E9EAA37D19C
:100E9000AECF94F0AE500D0A01E113D1210A01E169
:100EA000FBD0410A01E1F1D0050A01E1E0D00F0ACF
:100EB00026E000019251EA6A800FE96E000EEA22F4
:100EC00094C0EFFF922B9251070801E315D1B00EA9
:100ED000E66E1C0EE66E7DDBE552E552080EE66E10
:100EE000E66AE66A800EE66E000EE66E02EC0EF032
:100EF000006E050EE15E00500001926BFFD0000114
:100F000098AB08D0B20EE66E190EE66E62DBE552C3
:100F1000E552F5D0A2C000F0A3C001F0026A036A56
:100F200001AE02D002680368ACC004F0ADC005F0A9
:100F3000066A076A05AE02D00668076800500424F6
:100F4000C46F01500520C56F02500620C66F0350C4
:100F50000720C76FD890C751000A08E6D00EC45DBD
:100F6000070EC559000EC659000EC75902E3000E00
:100F700001D0010E006EC735000EC71909E6D880F2
:100F8000BC0EC4557F0EC555000EC655000EC75584
:100F900002E3000E01D0010E001008E0A80EE66E7C
:100FA000190EE66E16DBE552E552A9D0C4C01EF05C
:100FB000C5C01FF0C6C020F0C7C021F00A0E236EC6
:100FC000246A256A266A2DEC0DF01E500001C45DCE
:100FD000006E1F50C559016E2050C659026E215037
:100FE000C759036E00C0A4F001C0A5F0C5C0C6F08B
:100FF000C4C0C5F0C46BC6AF02D0C76901D0C76B0F
:1010000081B02BD0ACC0C8F0ADC0C9F0C9C0CAF027
:10101000C8C0C9F0C86BCAAF02D0CB6901D0CB6BD6
:10102000BC6BBD6BBE6BBF6BA30EE66E190EE66E9E
:10103000D0DAE552E552000198999891A8C0A6F03F
:10104000A9C0A7F0C50EAA6F040EAB6F030E976F71
:10105000B26BB36B9991988709D09E0EE66E190E0C
:10106000E66EB7DAE552E5520001989748D00001E4
:1010700098AB08D0B20EE66E190EE66EAADAE5520B
:10108000E5523DD09897E1DA3AD0000198B302D00A
:10109000988301D0989333D034D8080EE66EE66A70
:1010A000E66A800EE66E000EE66E02EC0EF0006E52
:1010B000050EE15E00500001926B932B94C0ADFFD2
:1010C0001ED01FD8080EE66EE66AE66A800EE66E4F
:1010D000000EE66E02EC0EF0006E050EE15E0050B2
:1010E0000001926B936B916BB00EE66E1C0EE66E78
:1010F00070DAE552E55203D094C0ADFF00D058D667
:1011000012000001935101E0E9D18051720A01E11E
:10111000DAD11F0A01E1D1D1050A01E1C1D10F0ADB
:1011200001E10CD1140A22E0070A1DE0100A18E0C0
:101130000D0A13E0190A0EE0160A09E0100A04E08D
:10114000805101E1C9D1C1D1560E916FC6D1460E71
:10115000916FC3D1500E916FC0D1490E916FBDD127
:10116000440E916FBAD1540E916FB7D1920EE66EC4
:10117000190EE66E2EDAE552E552880EE66E000E86
:10118000E66EACC0E6FFADC0E6FF03EC0CF0E55246
:10119000E552E552E552880EE66E000EE66E38DA4C
:1011A000E552E552870EE66E190EE66E12DAE5524A
:1011B000E552880EE66E000EE66EA2C0E6FFA3C002
:1011C000E6FF03EC0CF0E552E552E552E552880EDD
:1011D000E66E000EE66E1CDAE552E5527D0EE66E16
:1011E000190EE66EF6D9E552E552880EE66E000E4F
:1011F000E66E9AC0E6FF9BC0E6FF03EC0CF0E552FA
:10120000E552E552E552880EE66E000EE66E00DA13
:10121000E552E552730EE66E190EE66EDAD9E55226
:10122000E552880EE66E000EE66E9CC0E6FF9DC09D
:10123000E6FF03EC0CF0E552E552E552E552880E6C
:10124000E66E000EE66EE4D9E552E552690EE66EF2
:10125000190EE66EBED9E552E552880EE66E000E16
:10126000E66E9EC0E6FF9FC0E6FF03EC0CF0E55281
:10127000E552E552E552880EE66E000EE66EC8D9DC
:10128000E552E5525D0EE66E190EE66EA2D9E55204
:10129000E552880EE66E000EE66EAEC0E6FFAFC009
:1012A000E6FF03EC0CF0E552E552E552E552880EFC
:1012B000E66E000EE66EACD9E552E552500EE66ED3
:1012C000190EE66E86D9E552E552880EE66E000EDE
:1012D000E66EA6C0E6FFA7C0E6FF03EC0CF0E55201
:1012E000E552E552E552880EE66E000EE66E90D9A4
:1012F000E552E552430EE66E190EE66E6AD9E552E6
:10130000E552880EE66E000EE66EA4C0E6FFA5C0AC
:10131000E6FF03EC0CF0E552E552E552E552880E8B
:10132000E66E000EE66E74D9E552E552B00EE66E3A
:101330001C0EE66E4ED9E552E552CFD098AB08D0E0
:10134000B20EE66E190EE66E44D9E552E552C5D0EE
:10135000A2C000F0A3C001F0026A036A01AE02D08D
:1013600002680368ACC004F0ADC005F0066A076A05
:1013700005AE02D00668076800500424C46F01500F
:101380000520C56F02500620C66F03500720C76FA7
:10139000D890C751000A08E6D00EC45D070EC559A3
:1013A000000EC659000EC75902E3000E01D0010E0F
:1013B000006EC735000EC71909E6D880BC0EC455AB
:1013C0007F0EC555000EC655000EC75502E3000E30
:1013D00001D0010E001008E0A80EE66E190EE66EB0
:1013E000F8D8E552E55279D0C4C01EF0C5C01FF050
:1013F000C6C020F0C7C021F00A0E236E246A256AF9
:10140000266A2DEC0DF01E500001C45D006E1F50C9
:10141000C559016E2050C659026E2150C759036E3E
:1014200000C0A4F001C0A5F0C5C0C6F0C4C0C5F09E
:10143000C46BC6AF02D0C76901D0C76B81B026D0DC
:10144000ACC0C8F0ADC0C9F0C9C0CAF0C8C0C9F0CE
:10145000C86BCAAF02D0CB6901D0CB6BBC6BBD6B84
:10146000BE6BBF6BA30EE66E190EE66EB2D8E552E8
:10147000E552000198999891A8C0A6F0A9C0A7F0DC
:10148000C50EAA6F040EAB6F988709D09E0EE66E4C
:10149000190EE66E9ED8E552E552000198971DD0D0
:1014A00098AB08D0B20EE66E190EE66E92D8E552F1
:1014B000E55213D09897C9D810D098B302D098832A
:1014C00001D098930AD0989B08D03A0EE66E190E78
:1014D000E66E7FD8E552E55200D07AD0930501E060
:1014E00077D09151460A59E0120A3DE0020A2EE0F7
:1014F000120A1FE00D0A10E0190A01E068D0800E00
:10150000E66E000EE66E8EEC0BF0E552E552F3CF80
:101510009AF0F4CF9BF05CD0800EE66E000EE66E83
:101520008EEC0BF0E552E552F3CF9CF0F4CF9DF03A
:101530004FD0800EE66E000EE66E8EEC0BF0E5529C
:10154000E552F3CF9EF0F4CF9FF042D0800EE66ECE
:10155000000EE66E8EEC0BF0E552E552F3CFAEF0E6
:10156000F4CFAFF035D0800EE66E000EE66E8EEC56
:101570000BF0E552E552F3CFA8F0F4CFA9F0010E3D
:101580000001A9AF02D0D89003D0A85D000EA959E0
:1015900003E2010EA86FA96B1BD0800EE66E000E51
:1015A000E66E8EEC0BF0E552E552F3CFA2F0F4CFED
:1015B000A3F00001D890A35104E6E80EA25D030E4B
:1015C000A35904E2E80EA26F030EA36F01D000D06E
:1015D0001200D9CFE6FFE1CFD9FFACA2FED7FD0EB6
:1015E000DBCFF6FFFE0EDBCFF7FF0800F550AD6E48
:1015F000FD0EDBCFF6FFDB2AFE0EDBCFF7FF01E3AC
:10160000DB2A0800F550E9E1E552E7CFD9FF1200E7
:10161000D9CFE6FFE1CFD9FFACA2FED7FD0EDBCFDD
:10162000E9FFFE0EDBCFEAFFEF50AD6EFD0EDBCF24
:10163000E9FFDB2AFE0EDBCFEAFF01E3DB2AEF50F6
:10164000EBE1E552E7CFD9FF120081A047D00001BE
:1016500098AB09D044D8B20EE66E190EE66EB9DF2B
:10166000E552E5523BD0B70EF66E1C0EF76E090040
:10167000F5CFC0F00A00F5CFC1F084920F0EC1156E
:10168000966F300E9611966F808096C0E6FF1CEC28
:101690000EF0E5520001956FC0C0E6FF1CEC0EF0A5
:1016A000E5520001956F8090848284908480C50EFD
:1016B000AA6F040EAB6F81A010D0AA51AB110CE140
:1016C0000ED80001988B9897B20EE66E190EE66E52
:1016D00080DFE552E55201D0EED701D812000001BB
:1016E000C069070EC16F84920F0EC115966F300E40
:1016F0009611966F808096C0E6FF1CEC0EF0E552C6
:101700000001956FC0C0E6FF1CEC0EF0E552000131
:0C171000956F8090848284908480120089
:04171C00FF0EE3CF0A
:10172000EAFFE552FF0EE3CFE9FFE552E66AE66A1B
:10173000D9CFE6FFDACFE6FFFC0EE124D96EFF0E2B
:10174000E220DA6EE66AE66AE66A200EEF5C06E000
:10175000090EEF5C03E0EF6603D03FD0EE50F5D703
:101760002D0EEF5C03E1FF0EE32A03D02B0EEF5C9E
:1017700001E1EE502F0EEF6424D03A0EEF6021D03D
:10178000D890F90EE336FA0EE336FD0EDECFE3FF16
:10179000FE0EDDCFE3FFD890F90EE336FA0EE33606
:1017A000D890F90EE336FA0EE336FD0EE350DE264E
:1017B000FE0EE350DD22300EEE5CDE26000EDD2252
:1017C000D9D7FF0EE3CFE8FFE85207E0F90EE31E9A
:1017D000E32AFA0ED8B4E306E31EE552E552E552D9
:1017E000FF0EE3CFDAFFE552FF0EE3CFD9FFE5525C
:1017F000E1CFE9FFE2CFEAFFED52ED52EECFF3FF8A
:10180000EFCFF4FF1200D9CFE6FFDACFE6FFFA0EF2
:10181000E3CFD9FFFB0EE3CFDAFFFD0EE35209E77A
:101820002D0EDE6EFC0EE31EE32AFD0ED8B4E30699
:10183000E31EE652E652E652FD0EE124E76EFF0E8D
:10184000E220E46EE652F70EE3CFE6FFF70EE3CFB9
:10185000E6FF73EC0CF0F90EE124E96EFF0EE220D6
:10186000EA6E63EC0CF00AE160EC0CF009E163EC69
:101870000CF008E160EC0CF007E108D06EEC0CF025
:1018800069EC0CF06EEC0CF069EC0CF06EEC0CF00A
:10189000DE6AF90EE126FF0EE222FF0EE3CFDAFF49
:1018A000E552FF0EE3CFD9FFE552FC0EE124E96ECD
:1018B000FF0EE220EA6EEECFF3FFEFCFF4FF12004F
:1018C000EF380F0B1200EF500F0B02E1EE52D884ED
:1018D0001200EF380F0B300FDE6E1200EE500F0BC0
:1018E000300FDE6E1200FC0EE3CFE9FFFD0EE3CFFA
:1018F000EAFF100EE66EEE6AEE6AEF6AD890FD0E11
:10190000E336FE0EE336ED36ED36EF36FF0EE30638
:1019100009E094EC0CF0EE5294EC0CF0EE5294ECE6
:101920000CF0EDD7E56E1200030EEF24E8B6EF6E73
:0A193000300EEF24E8BEEF6E000C4D
:06193A00C7C7FC362F7246
:101940002F6E000D0A202072616E6765203D200019
:101950000D0A202064656C6179203D20000D0A206D
:1019600020766C696D203D20000D0A20204B6420FC
:101970003D20000D0A20204B69203D20000D0A204B
:10198000204B70203D20000D0A2020726571203D03
:1019900020000D0A20204144696E203D2000C7C769
:1019A000FC3500C7C7FC3000C7C7FC340D0A00C7B0
:1019B000C700C7C7FC330D0A00C7C7FC300D0A00BB
:1019C000C7C7FC320D0A00C7C7FC310D0A00C7C7E4
:1019D000FC370D0A000D0A5061696E20736572763E
:0919E0006F2076312E310A0D0052
:0619EA001E502302F3CFA2
:1019F0001AF0F4CF1BF02402F3501B26000EF42043
:101A00001C6E1E502502F3501C26000EF4201D6E85
:101A10001E502602F3501D261F502302F3501B2692
:101A2000F4501C22000E1D221F502402F3501C26CD
:101A3000F4501D221F502502F3501D262050230272
:101A4000F3501C26F4501D2220502402F3501D2672
:0A1A500021502302F3501D2612005E
:061A5A00186AE86A26AEDE
:101A60003AEF0DF0236C241E251E261E242225226B
:101A70002622181E21AE45EF0DF01E6C1F1E201EE3
:101A8000211E1F2220222122181EC3EC0DF021BE90
:101A90005CEF0DF018AE000C1E6C1F1E201E211EE8
:101AA000E86A1F22202221221A6C1B1E1C1E1D1EEA
:101AB0001B221C221D22000C18BE4CEF0DF01988B1
:021AC000FF0C19
:0E1AC200D9CFE6FFDACFE6FFE1CFD9FFE2CFC2
:101AD000DAFF3F0EC716C66AFD0EDB50C612FB0EBC
:101AE000DB50C712FC0EDB50030A09E0010A04E0D8
:101AF000020A06E1C78C04D0C78CC68801D0C6880C
:101B0000FD0EDB50050A03E0010A04E1928A948687
:101B1000C79E01D09496949A9488C68AE552E5CFE0
:081B2000DAFFE7CFD9FF120044
:081B2800D9CFE6FFDACFE6FF9A
:101B3000E1CFD9FFE2CFDAFFE652E652FC0EDBCF6F
:101B400000F0FD0EDBCF01F0060ED8900036013616
:101B5000E804FBE100C0DEFF01C0DDFF010EDB5049
:101B6000BE6EDF50E840E8403F0B300B006ECF0EFA
:101B7000BD140010BD6EE552E552E552E5CFDAFF27
:061B8000E7CFD9FF1200BF
:0A1B86001D6A1C6A1B6A1A6A200E11
:101B9000E76ED8901E361F36203621361A361B3691
:101BA0001C361D3623501A5C24501B5825501C58D7
:101BB00026501D5809E323501A5E24501B5A255005
:0E1BC0001C5A26501D5A1E2AE72EE4D712008A
:021BCE00D9CF6D
:101BD000E6FFDACFE6FFE1CFD9FFE2CFDAFFFD0E75
:101BE000DB50FB0BCA6ECC6A9E92FD0EDBAE02D0C0
:101BF0009D8201D09D92CA84E552E5CFDAFFE7CFFE
:041C0000D9FF1200F6
:0C1C0400FE0EE3CFE9FFFF0EE3CFEAFF86
:101C1000E9CFF3FFEACFF4FFFB0EE35003E1FC0E44
:101C2000E35009E0FB0EE30602E2FC0EE306FD0EC4
:081C3000E350EE6EF1D7120043
:081C3800D9CFE6FFDACFE6FF89
:101C4000E1CFD9FFE2CFDAFFFD0EDB50C96EC6AEA1
:101C500002D0FF0E03D0C7A0FED7000EE552E5CF9D
:081C6000DAFFE7CFD9FF120003
:081C6800D9CFE6FFDACFE6FF59
:101C7000E1CFD9FFE2CFDAFF0C0EBD6ECA94FD0EA4
:101C8000DB50CB6E07D8CA84E552E5CFDAFFE7CF49
:081C9000D9FF12009494120028
:081C980011EE00F021EE00F056
:101CA000F86A199C5DEC0EF0C7EC06F0FBD7120049
:091CB000C7C7FC300A0D0000005A
:021CBA00120016
:00000001FF
