:020000040000FA
:06080000A6EF0DF012004E
:0608080016EF04F01200DF
:02082A000000CC
:04082C00DACFE4FF3C
:10083000E2CFDAFFE9CFE4FFEACFE4FFF6CFE4FF4F
:10084000F7CFE4FFF5CFE4FFF3CFE4FFF4CFE4FF0D
:10085000FACFE4FF00EE18F0100EE80403E3EECF49
:10086000E4FFFBD700EE00F0180EE80403E3EECF40
:10087000E4FFFBD7B4C0E4FFB5C0E4FFB6C0E4FFBB
:10088000B7C0E4FFE6520001AA51AB1103E0AA078A
:10089000000EAB5B81B202D09885989755D88CD862
:1008A000000198A724D0970797510AE1060E976F89
:1008B000ACC0B0F0ADC0B1F0B22B000EB323998143
:1008C000A551AD19E8AE02D0AD3504D0AC51A45D50
:1008D000AD51A55901E2988998A907D0A607000E45
:1008E000A75BA651A71101E1988198D8E2D89E9202
:1008F000E552E5CFB7F0E5CFB6F0E5CFB5F0E5CFFF
:10090000B4F000EE17F0180EE80403E3E5CFEDFFB6
:10091000FBD700EE27F0100EE80403E3E5CFEDFF70
:10092000FBD7E5CFFAFFE5CFF4FFE5CFF3FFE5CF47
:10093000F5FFE5CFF7FFE5CFF6FFE5CFEAFFE5CF1F
:10094000E9FFE5CFDAFF110000019851080B15E02F
:100950009851800B12E1AEC000F0AFC001F0026A06
:10096000036A01AE02D0026803680050C827015034
:10097000C9230250CA230350CB23C80EE96E000ED0
:10098000EA6E030EEBCFF3FFC751F318E8AE02D0C7
:10099000F33408D0EE50C45DEE50C559EE50C65940
:1009A000EE50C75908E2C4C0C8F0C5C0C9F0C6C0FF
:1009B000CAF0C7C0CBF012008196818681AAFED70B
:1009C00083CFACF0818883CFADF081980001A05136
:1009D000AC5DD06FA151AD59D16FD26BD36BD1AF9C
:1009E00002D0D269D369ACC0A0F0ADC0A1F0AD35E2
:1009F00004E2AC51BC087F0EAD5501E2988DACC04D
:100A0000CCF0ADC0CDF0CDC0CEF0CCC0CDF0CC6B35
:100A1000CEAF02D0CF6901D0CF6B1200C8C0B4F006
:100A2000C9C0B5F0CAC0B6F0CBC0B7F00001B46B16
:100A3000CC0EE96E000EEA6EEE50B45DB86FEE506B
:100A4000B559B96FEE50B659BA6FEE50B759BB6F82
:100A5000B9C0B8F0BAC0B9F0BBC0BAF0BAAF14D0E0
:100A6000BB69D880BB51FF0A08E6000EB85D800E56
:100A7000B959FF0EBA59FF0EBB5905E2B86B800E8B
:100A8000B96FBA69BB6914D0BB6BBB35000EBB191B
:100A900009E6D880FF0EB8557F0EB955000EBA553D
:100AA000000EBB5505E2B8697F0EB96FBA6BBB6B20
:100AB0001200000198BF08D0B851BC27B951BD231E
:100AC000BA51BE23BB51BF239AC00CF09BC00DF09E
:100AD0000E6A0F6A0DAE02D00E680F68B8C008F03B
:100AE000B9C009F00A6A0B6A09AE02D00A680B683D
:100AF00008C01EF009C01FF00AC020F00BC021F092
:100B00000CC023F00DC024F00EC025F00FC026F05D
:100B10004FEC0CF01AC004F01BC005F01CC006F02E
:100B20001DC007F09CC010F09DC011F0126A136A3E
:100B300011AE02D012681368BCC01EF0BDC01FF019
:100B4000BEC020F0BFC021F010C023F011C024F0BF
:100B500012C025F013C026F04FEC0CF004501A24FC
:100B6000006E05501B20016E06501C20026E0750BF
:100B70001D20036E9EC014F09FC015F0166A176A00
:100B800015AE02D016681768D0C01EF0D1C01FF095
:100B9000D2C020F0D3C021F014C023F015C024F03F
:100BA00016C025F017C026F04FEC0CF000501A24A8
:100BB0000001C06F01501B20C16F02501C20C26F8A
:100BC00003501D20C36FC3AF0CD0FF0EC35D03E302
:100BD000800EC21505E1C06BC16B800EC26FC36988
:100BE0000AD0C35103E1C2517F0805E2C069C1695F
:100BF0007F0EC26FC36BC1C0C0F0C2C0C1F0989F6E
:100C0000C13504E2C051FE08070EC15505E2FE0ED3
:100C1000C06F070EC16F988FD880C15104E7020ED4
:100C2000C05DF80EC15905E2020EC06FF80EC16F2B
:100C3000988F080EC12784920F0EC115966F300E43
:100C40009611966F808096C0E6FF76EC0DF0E55227
:100C50000001956FC0C0E6FF76EC0DF0E552000193
:100C6000956F809084828490848012000001916B43
:100C7000926B936B946B010EA66FA76B989D9899DE
:100C80009897989F9891989B989398959991B06B05
:100C9000B16B060E976FB26BB36BAA6BAB6BBC6B91
:100CA000BD6BBE6BBF6B300EAE6F750EAF6FD06B92
:100CB000D16BD26BD36BB46BB56BB66BB76BB86BD8
:100CC000B96BBA6BBB6BC06BC16BC26BC36BC46BD4
:100CD000C56BC66BC76B980EA26F3A0EA36FC86B3D
:100CE000C96BCA6BCB6BCC6BCD6BCE6BCF6B080E6D
:100CF000E66EE66AE66A800EE66E000EE66E5CEC74
:100D00000DF0006E050EE15E0050EB0EE66E8EEC0F
:100D10000DF0E5529D0EE66E41EC0DF0E552E66AEF
:100D2000020EE66EEEEC0CF0E552E552800EE66E39
:100D3000E66A010EE66EBBEC0CF0E552E552E552B8
:100D40000F0EC16E806A816A826A836A846AFE0EAF
:100D5000926EE30E936EC30E946E9568966A8186CA
:100D60008194848284808198400EAF6E240EAC6E94
:100D7000900EAB6E3C0E00019A6F9B6B9C6B9D6B53
:100D80009E6B9F6BC9EC0AF0F28CF28E12006EDF44
:100D9000890EE66E180EE66E76DBE552E552640EBD
:100DA000E66E1B0EE66E6FDBE552E552ABA209D094
:100DB000820EE66E180EE66E66DBE552E552AB98E3
:100DC000AB88000198A50CD0000198970001989578
:100DD00096DB7B0EE66E180EE66E55DBE552E552AD
:100DE000000198AD0CD0000198970001989D87DB19
:100DF000740EE66E180EE66E46DBE552E552000113
:100E000098A10CD0000198970001989178DB6D0EA5
:100E1000E66E180EE66E37DBE552E5520001000182
:100E20009851080B10E00001AA51AB110CE1B1DBA5
:100E30000001988B00019897660EE66E180EE66E1C
:100E400022DBE552E552000100019851020B22E03D
:100E5000000100019951010B1DE000019991630E01
:100E6000E66E180EE66E0FDBE552E552ACA2FED739
:100E7000B2C0ADFFACA2FED7B3C0ADFFACA2FED7EF
:100E8000B0C0ADFFACA2FED7B1C0ADFFACA2FED7E3
:100E90000D0EAD6E9EAA5BD1AECF94F0AE500D0A92
:100EA00001E10ED1210A01E1F5D0410A01E1E9D0C9
:100EB000050A01E1D7D00F0A05E0350A01E01DD18E
:100EC000FF0045D1000198AB08D0660EE66E180E03
:100ED000E66ED9DAE552E5523AD1A2C000F0A3C0DD
:100EE00001F0026A036A01AE02D002680368ACC076
:100EF00004F0ADC005F0066A076A05AE02D00668C8
:100F00000768005004240001C46F0150052000014F
:100F1000C56F025006200001C66F03500720000174
:100F2000C76FD8900001C751000A08E6D00EC45D13
:100F3000070EC559000EC659000EC75902E3000E30
:100F400001D0010E006E0001C735000EC71909E679
:100F5000D880BC0EC4557F0EC555000EC655000E78
:100F6000C75502E3000E01D0010E001008E05C0E30
:100F7000E66E180EE66E87DAE552E552E8D0C4C098
:100F80001EF0C5C01FF0C6C020F0C7C021F00A0E79
:100F9000236E246A256A266A87EC0CF01E50000135
:100FA000C45D006E1F500001C559016E2050000144
:100FB000C659026E21500001C759036E00C0A4F04B
:100FC00001C0A5F0C5C0C6F0C4C0C5F00001C46B27
:100FD0000001C6AF03D00001C76902D00001C76B92
:100FE00081B036D0ACC0C8F0ADC0C9F0C9C0CAF03D
:100FF000C8C0C9F00001C86B0001CAAF03D000012E
:10100000CB6902D00001CB6B0001BC6BBD6BBE6B2A
:10101000BF6B570EE66E180EE66E35DAE552E552F6
:101020000001989900019891A8C0A6F0A9C0A7F066
:101030000001C50EAA6F040EAB6F0001060E976F7C
:101040000001B26BB36B000199910001988709D040
:10105000520EE66E180EE66E16DAE552E552000103
:10106000989775D0000198AB08D0660EE66E180E02
:10107000E66E09DAE552E5526AD0000198973FDA48
:1010800066D0000198B303D00001988302D000011C
:1010900098935DD05ED8080EE66EE66AE66A800E2A
:1010A000E66E000EE66E5CEC0DF0006E050EE15E85
:1010B00000500001926B0001932B94C0ADFF47D00C
:1010C00048D8080EE66EE66AE66A800EE66E000E06
:1010D000E66E5CEC0DF0006E050EE15E0050000166
:1010E000926B0001936B0001916B640EE66E1B0E18
:1010F000E66EC9D9E552E5522AD000019251EA6A5A
:10110000800FE96E000EEA2294C0EFFF0001922BDF
:1011100000019251070818E2640EE66E1B0EE66E9F
:10112000B2D9E552E552080EE66EE66AE66A800E2E
:10113000E66E000EE66E5CEC0DF0006E050EE15EF4
:1011400000500001926B02D094C0ADFF00D02ED6AB
:1011500012000001935101E01BD18051720A01E19C
:101160000CD1010A22E0070A1DE0100A18E00D0A5E
:1011700013E0190A0EE0160A09E0100A04E0805193
:1011800001E104D1FCD0560E916F01D1460E916F52
:10119000FED0500E916FFBD0490E916FF8D0440EE7
:1011A000916FF5D0540E916FF2D0460EE66E180E88
:1011B000E66E69D9E552E552880EE66E000EE66EDF
:1011C000ACC0E6FFADC0E6FF5DEC0BF0E552E552CA
:1011D000E552E552880EE66E000EE66E73D9E552D2
:1011E000E5523B0EE66E180EE66E4DD9E552E5521D
:1011F000880EE66E000EE66EA2C0E6FFA3C0E6FF14
:101200005DEC0BF0E552E552E552E552880EE66ED4
:10121000000EE66E57D9E552E552310EE66E180E15
:10122000E66E31D9E552E552880EE66E000EE66EA6
:101230009AC0E6FF9BC0E6FF5DEC0BF0E552E5527D
:10124000E552E552880EE66E000EE66E3BD9E55299
:10125000E552270EE66E180EE66E15D9E552E552F8
:10126000880EE66E000EE66E9CC0E6FF9DC0E6FFAF
:101270005DEC0BF0E552E552E552E552880EE66E64
:10128000000EE66E1FD9E552E5521D0EE66E180EF1
:10129000E66EF9D8E552E552880EE66E000EE66E6F
:1012A0009EC0E6FF9FC0E6FF5DEC0BF0E552E55205
:1012B000E552E552880EE66E000EE66E03D9E55261
:1012C000E552110EE66E180EE66EDDD8E552E552D7
:1012D000880EE66E000EE66EAEC0E6FFAFC0E6FF1B
:1012E0005DEC0BF0E552E552E552E552880EE66EF4
:1012F000000EE66EE7D8E552E552040EE66E180ED3
:10130000E66EC1D8E552E552880EE66E000EE66E36
:10131000A6C0E6FFA7C0E6FF5DEC0BF0E552E55284
:10132000E552E552880EE66E000EE66ECBD8E55229
:10133000E552F70EE66E170EE66EA5D8E552E552B9
:10134000880EE66E000EE66EA4C0E6FFA5C0E6FFBE
:101350005DEC0BF0E552E552E552E552880EE66E83
:10136000000EE66EAFD8E552E552640EE66E1B0E37
:10137000E66E89D8E552E5520AD0989B08D0EE0E69
:10138000E66E170EE66E7FD8E552E55200D07AD0B1
:10139000930501E077D09151460A59E0120A3DE0E9
:1013A000020A2EE0120A1FE00D0A10E0190A01E0FD
:1013B00068D0800EE66E000EE66EE8EC0AF0E552AC
:1013C000E552F3CF9AF0F4CF9BF05CD0800EE66E3E
:1013D000000EE66EE8EC0AF0E552E552F3CF9CF021
:1013E000F4CF9DF04FD0800EE66E000EE66EE8EC76
:1013F0000AF0E552E552F3CF9EF0F4CF9FF042D0D1
:10140000800EE66E000EE66EE8EC0AF0E552E5525C
:10141000F3CFAEF0F4CFAFF035D0800EE66E000E15
:10142000E66EE8EC0AF0E552E552F3CFA8F0F4CF0F
:10143000A9F0010E0001A9AF02D0D89003D0A85D99
:10144000000EA95903E2010EA86FA96B1BD0800EF4
:10145000E66E000EE66EE8EC0AF0E552E552F3CFD8
:10146000A2F0F4CFA3F00001D890A35104E6E80E57
:10147000A25D030EA35904E2E80EA26F030EA36F50
:1014800001D000D01200D9CFE6FFE1CFD9FFACA246
:10149000FED7FD0EDBCFF6FFFE0EDBCFF7FF080019
:1014A000F550AD6EFD0EDBCFF6FFDB2AFE0EDBCF77
:1014B000F7FF01E3DB2A0800F550E9E1E552E7CF49
:1014C000D9FF1200D9CFE6FFE1CFD9FFACA2FED7FA
:1014D000FD0EDBCFE9FFFE0EDBCFEAFFEF50AD6E76
:1014E000FD0EDBCFE9FFDB2AFE0EDBCFEAFF01E3D7
:1014F000DB2AEF50EBE1E552E7CFD9FF120081A0E4
:1015000047D0000198AB09D044D8660EE66E180E9D
:10151000E66EB9DFE552E5523BD06B0EF66E1B0E60
:10152000F76E0900F5CFC0F00A00F5CFC1F0849244
:101530000F0EC115966F300E9611966F808096C073
:10154000E6FF76EC0DF0E5520001956FC0C0E6FFB6
:1015500076EC0DF0E5520001956F809084828490C6
:101560008480C50EAA6F040EAB6F81A010D0AA5163
:10157000AB110CE10ED80001988B9897660EE66EC1
:10158000180EE66E80DFE552E55201D0EED701D8A5
:1015900012000001C069070EC16F84920F0EC115C1
:1015A000966F300E9611966F808096C0E6FF76ECAF
:1015B0000DF0E5520001956FC0C0E6FF76EC0DF02E
:1015C000E5520001956F809084828490848012009F
:1015D000FF0EE3CFEAFFE552FF0EE3CFE9FFE5524E
:1015E000E66AE66AD9CFE6FFDACFE6FFFC0EE12431
:1015F000D96EFF0EE220DA6EE66AE66AE66A200E2F
:10160000EF5C06E0090EEF5C03E0EF6603D03FD02D
:10161000EE50F5D72D0EEF5C03E1FF0EE32A03D069
:101620002B0EEF5C01E1EE502F0EEF6424D03A0E4A
:10163000EF6021D0D890F90EE336FA0EE336FD0EB6
:10164000DECFE3FFFE0EDDCFE3FFD890F90EE336E9
:10165000FA0EE336D890F90EE336FA0EE336FD0EB5
:10166000E350DE26FE0EE350DD22300EEE5CDE2679
:10167000000EDD22D9D7FF0EE3CFE8FFE85207E0E6
:10168000F90EE31EE32AFA0ED8B4E306E31EE55290
:10169000E552E552FF0EE3CFDAFFE552FF0EE3CF4E
:1016A000D9FFE552E1CFE9FFE2CFEAFFED52ED527B
:1016B000EECFF3FFEFCFF4FF1200D9CFE6FFDACF82
:1016C000E6FFFA0EE3CFD9FFFB0EE3CFDAFFFD0E04
:1016D000E35209E72D0EDE6EFC0EE31EE32AFD0E3B
:1016E000D8B4E306E31EE652E652E652FD0EE124CC
:1016F000E76EFF0EE220E46EE652F70EE3CFE6FF60
:10170000F70EE3CFE6FFCDEC0BF0F90EE124E96E26
:10171000FF0EE220EA6EBDEC0BF00AE1BAEC0BF032
:1017200009E1BDEC0BF008E1BAEC0BF007E108D0E1
:10173000C8EC0BF0C3EC0BF0C8EC0BF0C3EC0BF0F7
:10174000C8EC0BF0DE6AF90EE126FF0EE222FF0E76
:10175000E3CFDAFFE552FF0EE3CFD9FFE552FC0EEF
:10176000E124E96EFF0EE220EA6EEECFF3FFEFCF49
:10177000F4FF1200EF380F0B1200EF500F0B02E1D5
:10178000EE52D8841200EF380F0B300FDE6E1200CD
:10179000EE500F0B300FDE6E1200FC0EE3CFE9FFB0
:1017A000FD0EE3CFEAFF100EE66EEE6AEE6AEF6A18
:1017B000D890FD0EE336FE0EE336ED36ED36EF360D
:1017C000FF0EE30609E0EEEC0BF0EE52EEEC0BF050
:1017D000EE52EEEC0BF0EDD7E56E1200030EEF24A7
:0E17E000E8B6EF6E300EEF24E8BEEF6E000CA0
:0217EE00C7C76B
:1017F000FC362F722F6E000D0A202072616E676515
:10180000203D20000D0A202064656C6179203D2078
:10181000000D0A2020766C696D203D20000D0A2005
:10182000204B64203D20000D0A20204B69203D20E4
:10183000000D0A20204B70203D20000D0A20207250
:101840006571203D20000D0A20204144696E203D35
:101850002000C7C7FC3500C7C7FC3000C7C7FC3431
:101860000D0A00C7C700C7C7FC330D0A00C7C7FC75
:10187000300D0A00C7C7FC320D0A00C7C7FC310D86
:101880000A00C7C7FC370D0A000D0A5061696E20B7
:0D189000736572766F2076312E320A0D00DE
:02189E001E50DA
:1018A0002302F3CF1AF0F4CF1BF02402F3501B26CF
:1018B000000EF4201C6E1E502502F3501C26000E54
:1018C000F4201D6E1E502602F3501D261F502302C9
:1018D000F3501B26F4501C22000E1D221F50240220
:1018E000F3501C26F4501D221F502502F3501D26D4
:1018F00020502302F3501C26F4501D2220502402B5
:0E190000F3501D2621502302F3501D26120025
:02190E00186A55
:10191000E86A26AE94EF0CF0236C241E251E261ECA
:10192000242225222622181E21AE9FEF0CF01E6CC9
:101930001F1E201E211E1F2220222122181E1DECE8
:101940000DF021BEB6EF0CF018AE000C1E6C1F1E81
:10195000201E211EE86A1F22202221221A6C1B1E33
:101960001C1E1D1E1B221C221D22000C18BEA6EFD1
:061970000CF01988FF0CC9
:0A197600D9CFE6FFDACFE6FFE1CF9C
:10198000D9FFE2CFDAFF3F0EC716C66AFD0EDB5065
:10199000C612FB0EDB50C712FC0EDB50030A09E037
:1019A000010A04E0020A06E1C78C04D0C78CC6888D
:1019B00001D0C688FD0EDB50050A03E0010A04E1F0
:1019C000928A9486C79E01D09496949A9488C68AE7
:0C19D000E552E5CFDAFFE7CFD9FF1200A7
:0419DC00D9CFE6FF7A
:1019E000DACFE6FFE1CFD9FFE2CFDAFFE652E652E7
:1019F000FC0EDBCF00F0FD0EDBCF01F0060ED89021
:101A000000360136E804FBE100C0DEFF01C0DDFF67
:101A1000010EDB50BE6EDF50E840E8403F0B300B5C
:101A2000006ECF0EBD140010BD6EE552E552E552BA
:0A1A3000E5CFDAFFE7CFD9FF12007F
:061A3A001D6A1C6A1B6A14
:101A40001A6A200EE76ED8901E361F3620362136D1
:101A50001A361B361C361D3623501A5C24501B5870
:101A600025501C5826501D5809E323501A5E245057
:101A70001B5A25501C5A26501D5A1E2AE72EE4D701
:021A8000120052
:0E1A8200D9CFE6FFDACFE6FFE1CFD9FFE2CF02
:101A9000DAFFFD0EDB50FB0BCA6ECC6A9E92FD0E88
:101AA000DBAE02D09D8201D09D92CA84E552E5CF83
:081AB000DAFFE7CFD9FF1200B5
:081AB800FE0EE3CFE9FFFF0E73
:101AC000E3CFEAFFE9CFF3FFEACFF4FFFB0EE350E9
:101AD00003E1FC0EE35009E0FB0EE30602E2FC0E1C
:0C1AE000E306FD0EE350EE6EF1D712009D
:041AEC00D9CFE6FF69
:101AF000DACFE6FFE1CFD9FFE2CFDAFFFD0EDB5010
:101B0000C96EC6AE02D0FF0E03D0C7A0FED7000E2E
:0C1B1000E552E5CFDAFFE7CFD9FF120065
:041B1C00D9CFE6FF38
:101B2000DACFE6FFE1CFD9FFE2CFDAFF0C0EBD6ED0
:101B3000CA94FD0EDB50CB6E07D8CA84E552E5CFC0
:0C1B4000DAFFE7CFD9FF120094941200E6
:041B4C0011EE00F0A6
:101B500021EE00F0F86A199CB7EC0DF0C7EC06F026
:041B6000FBD712009D
:091B6400C7C7FC300A0D000000A7
:021B6E00120063
:00000001FF
